{"abi":[{"type":"constructor","inputs":[{"name":"initialOwner","type":"address","internalType":"address"},{"name":"_feeBps","type":"uint256","internalType":"uint256"},{"name":"_feeRecipient","type":"address","internalType":"address"}],"stateMutability":"nonpayable"},{"type":"function","name":"acceptOwnership","inputs":[],"outputs":[],"stateMutability":"nonpayable"},{"type":"function","name":"bookSpot","inputs":[{"name":"spotId","type":"uint256","internalType":"uint256"},{"name":"maxHours","type":"uint32","internalType":"uint32"}],"outputs":[{"name":"bookingId","type":"uint256","internalType":"uint256"}],"stateMutability":"payable"},{"type":"function","name":"bookings","inputs":[{"name":"","type":"uint256","internalType":"uint256"}],"outputs":[{"name":"spotId","type":"uint256","internalType":"uint256"},{"name":"renter","type":"address","internalType":"address"},{"name":"depositWei","type":"uint256","internalType":"uint256"},{"name":"ratePerHourWei","type":"uint256","internalType":"uint256"},{"name":"maxHours","type":"uint32","internalType":"uint32"},{"name":"checkedInAt","type":"uint64","internalType":"uint64"},{"name":"checkedOutAt","type":"uint64","internalType":"uint64"},{"name":"status","type":"uint8","internalType":"enum ParkingMarketplace.BookingStatus"}],"stateMutability":"view"},{"type":"function","name":"bookingsCount","inputs":[],"outputs":[{"name":"","type":"uint256","internalType":"uint256"}],"stateMutability":"view"},{"type":"function","name":"cancelBeforeCheckIn","inputs":[{"name":"bookingId","type":"uint256","internalType":"uint256"}],"outputs":[],"stateMutability":"nonpayable"},{"type":"function","name":"checkIn","inputs":[{"name":"bookingId","type":"uint256","internalType":"uint256"},{"name":"secret","type":"string","internalType":"string"}],"outputs":[],"stateMutability":"nonpayable"},{"type":"function","name":"checkOut","inputs":[{"name":"bookingId","type":"uint256","internalType":"uint256"},{"name":"secret","type":"string","internalType":"string"}],"outputs":[],"stateMutability":"nonpayable"},{"type":"function","name":"createSpot","inputs":[{"name":"ratePerHourWei","type":"uint256","internalType":"uint256"},{"name":"qrSecretHash","type":"bytes32","internalType":"bytes32"}],"outputs":[{"name":"spotId","type":"uint256","internalType":"uint256"}],"stateMutability":"nonpayable"},{"type":"function","name":"feeBps","inputs":[],"outputs":[{"name":"","type":"uint256","internalType":"uint256"}],"stateMutability":"view"},{"type":"function","name":"feeRecipient","inputs":[],"outputs":[{"name":"","type":"address","internalType":"address"}],"stateMutability":"view"},{"type":"function","name":"owner","inputs":[],"outputs":[{"name":"","type":"address","internalType":"address"}],"stateMutability":"view"},{"type":"function","name":"pendingOwner","inputs":[],"outputs":[{"name":"","type":"address","internalType":"address"}],"stateMutability":"view"},{"type":"function","name":"renounceOwnership","inputs":[],"outputs":[],"stateMutability":"nonpayable"},{"type":"function","name":"spots","inputs":[{"name":"","type":"uint256","internalType":"uint256"}],"outputs":[{"name":"owner","type":"address","internalType":"address"},{"name":"ratePerHourWei","type":"uint256","internalType":"uint256"},{"name":"active","type":"bool","internalType":"bool"},{"name":"qrSecretHash","type":"bytes32","internalType":"bytes32"}],"stateMutability":"view"},{"type":"function","name":"spotsCount","inputs":[],"outputs":[{"name":"","type":"uint256","internalType":"uint256"}],"stateMutability":"view"},{"type":"function","name":"transferOwnership","inputs":[{"name":"newOwner","type":"address","internalType":"address"}],"outputs":[],"stateMutability":"nonpayable"},{"type":"function","name":"updateSpot","inputs":[{"name":"spotId","type":"uint256","internalType":"uint256"},{"name":"ratePerHourWei","type":"uint256","internalType":"uint256"},{"name":"active","type":"bool","internalType":"bool"},{"name":"qrSecretHash","type":"bytes32","internalType":"bytes32"}],"outputs":[],"stateMutability":"nonpayable"},{"type":"event","name":"BookingCreated","inputs":[{"name":"bookingId","type":"uint256","indexed":true,"internalType":"uint256"},{"name":"spotId","type":"uint256","indexed":true,"internalType":"uint256"},{"name":"renter","type":"address","indexed":true,"internalType":"address"},{"name":"depositWei","type":"uint256","indexed":false,"internalType":"uint256"},{"name":"maxHours","type":"uint32","indexed":false,"internalType":"uint32"}],"anonymous":false},{"type":"event","name":"CheckedIn","inputs":[{"name":"bookingId","type":"uint256","indexed":true,"internalType":"uint256"},{"name":"timestamp","type":"uint64","indexed":false,"internalType":"uint64"}],"anonymous":false},{"type":"event","name":"CheckedOut","inputs":[{"name":"bookingId","type":"uint256","indexed":true,"internalType":"uint256"},{"name":"timestamp","type":"uint64","indexed":false,"internalType":"uint64"},{"name":"costWei","type":"uint256","indexed":false,"internalType":"uint256"},{"name":"hostPaidWei","type":"uint256","indexed":false,"internalType":"uint256"},{"name":"refundWei","type":"uint256","indexed":false,"internalType":"uint256"}],"anonymous":false},{"type":"event","name":"OwnershipTransferStarted","inputs":[{"name":"previousOwner","type":"address","indexed":true,"internalType":"address"},{"name":"newOwner","type":"address","indexed":true,"internalType":"address"}],"anonymous":false},{"type":"event","name":"OwnershipTransferred","inputs":[{"name":"previousOwner","type":"address","indexed":true,"internalType":"address"},{"name":"newOwner","type":"address","indexed":true,"internalType":"address"}],"anonymous":false},{"type":"event","name":"SpotCreated","inputs":[{"name":"spotId","type":"uint256","indexed":true,"internalType":"uint256"},{"name":"owner","type":"address","indexed":true,"internalType":"address"},{"name":"ratePerHourWei","type":"uint256","indexed":false,"internalType":"uint256"}],"anonymous":false},{"type":"event","name":"SpotUpdated","inputs":[{"name":"spotId","type":"uint256","indexed":true,"internalType":"uint256"},{"name":"ratePerHourWei","type":"uint256","indexed":false,"internalType":"uint256"},{"name":"active","type":"bool","indexed":false,"internalType":"bool"}],"anonymous":false},{"type":"error","name":"OwnableInvalidOwner","inputs":[{"name":"owner","type":"address","internalType":"address"}]},{"type":"error","name":"OwnableUnauthorizedAccount","inputs":[{"name":"account","type":"address","internalType":"address"}]},{"type":"error","name":"ReentrancyGuardReentrantCall","inputs":[]}],"bytecode":{"object":"0x608060405234801561000f575f5ffd5b5060405161276c38038061276c83398181016040528101906100319190610300565b8260015f819055505f73ffffffffffffffffffffffffffffffffffffffff168173ffffffffffffffffffffffffffffffffffffffff16036100a9575f6040517f1e4fbdf70000000000000000000000000000000000000000000000000000000081526004016100a0919061035f565b60405180910390fd5b6100b88161017660201b60201c565b505f73ffffffffffffffffffffffffffffffffffffffff168173ffffffffffffffffffffffffffffffffffffffff1603610127576040517f08c379a000000000000000000000000000000000000000000000000000000000815260040161011e906103d2565b60405180910390fd5b816003819055508060045f6101000a81548173ffffffffffffffffffffffffffffffffffffffff021916908373ffffffffffffffffffffffffffffffffffffffff1602179055505050506103f0565b60025f6101000a81549073ffffffffffffffffffffffffffffffffffffffff02191690556101a9816101ac60201b60201c565b50565b5f60015f9054906101000a900473ffffffffffffffffffffffffffffffffffffffff1690508160015f6101000a81548173ffffffffffffffffffffffffffffffffffffffff021916908373ffffffffffffffffffffffffffffffffffffffff1602179055508173ffffffffffffffffffffffffffffffffffffffff168173ffffffffffffffffffffffffffffffffffffffff167f8be0079c531659141344cd1fd0a4f28419497f9722a3daafe3b4186f6b6457e060405160405180910390a35050565b5f5ffd5b5f73ffffffffffffffffffffffffffffffffffffffff82169050919050565b5f61029c82610273565b9050919050565b6102ac81610292565b81146102b6575f5ffd5b50565b5f815190506102c7816102a3565b92915050565b5f819050919050565b6102df816102cd565b81146102e9575f5ffd5b50565b5f815190506102fa816102d6565b92915050565b5f5f5f606084860312156103175761031661026f565b5b5f610324868287016102b9565b9350506020610335868287016102ec565b9250506040610346868287016102b9565b9150509250925092565b61035981610292565b82525050565b5f6020820190506103725f830184610350565b92915050565b5f82825260208201905092915050565b7f66656520726563697069656e74206973207a65726f20616464726573730000005f82015250565b5f6103bc601d83610378565b91506103c782610388565b602082019050919050565b5f6020820190508181035f8301526103e9816103b0565b9050919050565b61236f806103fd5f395ff3fe6080604052600436106100fd575f3560e01c8063715018a611610094578063bfd420fa11610063578063bfd420fa14610301578063d6a34abf14610329578063e30c397814610351578063f2fde38b1461037b578063f9cdde0c146103a3576100fd565b8063715018a61461028157806379ba5097146102975780638da5cb5b146102ad578063b6406b18146102d7576100fd565b8063488944b8116100d0578063488944b8146101d75780635b18a60514610201578063675cdce91461023157806367deced214610259576100fd565b8063145a8bdf146101015780631dab301e1461014057806324a9d8531461018357806346904840146101ad575b5f5ffd5b34801561010c575f5ffd5b50610127600480360381019061012291906118c5565b6103df565b6040516101379493929190611970565b60405180910390f35b34801561014b575f5ffd5b50610166600480360381019061016191906118c5565b610445565b60405161017a989796959493929190611a66565b60405180910390f35b34801561018e575f5ffd5b506101976104fb565b6040516101a49190611ae2565b60405180910390f35b3480156101b8575f5ffd5b506101c1610501565b6040516101ce9190611afb565b60405180910390f35b3480156101e2575f5ffd5b506101eb610526565b6040516101f89190611ae2565b60405180910390f35b61021b60048036038101906102169190611b3e565b610532565b6040516102289190611ae2565b60405180910390f35b34801561023c575f5ffd5b5061025760048036038101906102529190611bd0565b61091b565b005b348015610264575f5ffd5b5061027f600480360381019061027a9190611c95565b610a63565b005b34801561028c575f5ffd5b50610295610d21565b005b3480156102a2575f5ffd5b506102ab610d34565b005b3480156102b8575f5ffd5b506102c1610dc2565b6040516102ce9190611afb565b60405180910390f35b3480156102e2575f5ffd5b506102eb610dea565b6040516102f89190611ae2565b60405180910390f35b34801561030c575f5ffd5b50610327600480360381019061032291906118c5565b610df6565b005b348015610334575f5ffd5b5061034f600480360381019061034a9190611c95565b610fcd565b005b34801561035c575f5ffd5b50610365611461565b6040516103729190611afb565b60405180910390f35b348015610386575f5ffd5b506103a1600480360381019061039c9190611d1c565b611489565b005b3480156103ae575f5ffd5b506103c960048036038101906103c49190611d47565b611535565b6040516103d69190611ae2565b60405180910390f35b600581815481106103ee575f80fd5b905f5260205f2090600402015f91509050805f015f9054906101000a900473ffffffffffffffffffffffffffffffffffffffff1690806001015490806002015f9054906101000a900460ff16908060030154905084565b60068181548110610454575f80fd5b905f5260205f2090600502015f91509050805f015490806001015f9054906101000a900473ffffffffffffffffffffffffffffffffffffffff1690806002015490806003015490806004015f9054906101000a900463ffffffff16908060040160049054906101000a900467ffffffffffffffff169080600401600c9054906101000a900467ffffffffffffffff16908060040160149054906101000a900460ff16905088565b60035481565b60045f9054906101000a900473ffffffffffffffffffffffffffffffffffffffff1681565b5f600580549050905090565b5f61053b6116bc565b5f600584815481106105505761054f611d85565b5b905f5260205f2090600402016040518060800160405290815f82015f9054906101000a900473ffffffffffffffffffffffffffffffffffffffff1673ffffffffffffffffffffffffffffffffffffffff1673ffffffffffffffffffffffffffffffffffffffff16815260200160018201548152602001600282015f9054906101000a900460ff161515151581526020016003820154815250509050806040015161062f576040517f08c379a000000000000000000000000000000000000000000000000000000000815260040161062690611e0c565b60405180910390fd5b5f8363ffffffff1611801561064b575060488363ffffffff1611155b61068a576040517f08c379a000000000000000000000000000000000000000000000000000000000815260040161068190611e74565b60405180910390fd5b5f8363ffffffff1682602001516106a19190611ebf565b90508034146106e5576040517f08c379a00000000000000000000000000000000000000000000000000000000081526004016106dc90611f4a565b60405180910390fd5b60066040518061010001604052808781526020013373ffffffffffffffffffffffffffffffffffffffff168152602001348152602001846020015181526020018663ffffffff1681526020015f67ffffffffffffffff1681526020015f67ffffffffffffffff1681526020015f6003811115610764576107636119f3565b5b815250908060018154018082558091505060019003905f5260205f2090600502015f909190919091505f820151815f01556020820151816001015f6101000a81548173ffffffffffffffffffffffffffffffffffffffff021916908373ffffffffffffffffffffffffffffffffffffffff16021790555060408201518160020155606082015181600301556080820151816004015f6101000a81548163ffffffff021916908363ffffffff16021790555060a08201518160040160046101000a81548167ffffffffffffffff021916908367ffffffffffffffff16021790555060c082015181600401600c6101000a81548167ffffffffffffffff021916908367ffffffffffffffff16021790555060e08201518160040160146101000a81548160ff0219169083600381111561089e5761089d6119f3565b5b0217905550505060016006805490506108b79190611f68565b92503373ffffffffffffffffffffffffffffffffffffffff1685847f0caecdb54d63bb64914ac90d476fdbb27505446f16c7273adf7bca8a4d0528523488604051610903929190611f9b565b60405180910390a45050610915611700565b92915050565b5f600585815481106109305761092f611d85565b5b905f5260205f2090600402019050805f015f9054906101000a900473ffffffffffffffffffffffffffffffffffffffff1673ffffffffffffffffffffffffffffffffffffffff163373ffffffffffffffffffffffffffffffffffffffff16146109ce576040517f08c379a00000000000000000000000000000000000000000000000000000000081526004016109c59061200c565b60405180910390fd5b5f8411156109e0578381600101819055505b82816002015f6101000a81548160ff0219169083151502179055505f5f1b8214610a0e578181600301819055505b847f0ec5921e7cd5bb4359895c80d7bd446048cceb4f6d7fa32184b424aa2025456d8260010154836002015f9054906101000a900460ff16604051610a5492919061202a565b60405180910390a25050505050565b5f60068481548110610a7857610a77611d85565b5b905f5260205f20906005020190505f6005825f015481548110610a9e57610a9d611d85565b5b905f5260205f2090600402019050816001015f9054906101000a900473ffffffffffffffffffffffffffffffffffffffff1673ffffffffffffffffffffffffffffffffffffffff163373ffffffffffffffffffffffffffffffffffffffff1614610b3d576040517f08c379a0000000000000000000000000000000000000000000000000000000008152600401610b349061209b565b60405180910390fd5b5f6003811115610b5057610b4f6119f3565b5b8260040160149054906101000a900460ff166003811115610b7457610b736119f3565b5b14610bb4576040517f08c379a0000000000000000000000000000000000000000000000000000000008152600401610bab90612103565b60405180910390fd5b806002015f9054906101000a900460ff16610c04576040517f08c379a0000000000000000000000000000000000000000000000000000000008152600401610bfb90611e0c565b60405180910390fd5b80600301548484604051602001610c1c92919061215d565b6040516020818303038152906040528051906020012014610c72576040517f08c379a0000000000000000000000000000000000000000000000000000000008152600401610c69906121bf565b60405180910390fd5b428260040160046101000a81548167ffffffffffffffff021916908367ffffffffffffffff16021790555060018260040160146101000a81548160ff02191690836003811115610cc557610cc46119f3565b5b0217905550847f3204a168926ad7593d69338c6e47b73dad63dcb4225dd22925295c01801fb4aa8360040160049054906101000a900467ffffffffffffffff16604051610d1291906121dd565b60405180910390a25050505050565b610d29611709565b610d325f611790565b565b5f610d3d6117c0565b90508073ffffffffffffffffffffffffffffffffffffffff16610d5e611461565b73ffffffffffffffffffffffffffffffffffffffff1614610db657806040517f118cdaa7000000000000000000000000000000000000000000000000000000008152600401610dad9190611afb565b60405180910390fd5b610dbf81611790565b50565b5f60015f9054906101000a900473ffffffffffffffffffffffffffffffffffffffff16905090565b5f600680549050905090565b610dfe6116bc565b5f60068281548110610e1357610e12611d85565b5b905f5260205f2090600502019050806001015f9054906101000a900473ffffffffffffffffffffffffffffffffffffffff1673ffffffffffffffffffffffffffffffffffffffff163373ffffffffffffffffffffffffffffffffffffffff1614610eb2576040517f08c379a0000000000000000000000000000000000000000000000000000000008152600401610ea99061209b565b60405180910390fd5b5f6003811115610ec557610ec46119f3565b5b8160040160149054906101000a900460ff166003811115610ee957610ee86119f3565b5b14610f29576040517f08c379a0000000000000000000000000000000000000000000000000000000008152600401610f2090612103565b60405180910390fd5b60038160040160146101000a81548160ff02191690836003811115610f5157610f506119f3565b5b0217905550806001015f9054906101000a900473ffffffffffffffffffffffffffffffffffffffff1673ffffffffffffffffffffffffffffffffffffffff166108fc826002015490811502906040515f60405180830381858888f19350505050158015610fc0573d5f5f3e3d5ffd5b5050610fca611700565b50565b610fd56116bc565b5f60068481548110610fea57610fe9611d85565b5b905f5260205f20906005020190505f6005825f0154815481106110105761100f611d85565b5b905f5260205f2090600402019050816001015f9054906101000a900473ffffffffffffffffffffffffffffffffffffffff1673ffffffffffffffffffffffffffffffffffffffff163373ffffffffffffffffffffffffffffffffffffffff16146110af576040517f08c379a00000000000000000000000000000000000000000000000000000000081526004016110a69061209b565b60405180910390fd5b600160038111156110c3576110c26119f3565b5b8260040160149054906101000a900460ff1660038111156110e7576110e66119f3565b5b14611127576040517f08c379a000000000000000000000000000000000000000000000000000000000815260040161111e90612103565b60405180910390fd5b8060030154848460405160200161113f92919061215d565b6040516020818303038152906040528051906020012014611195576040517f08c379a000000000000000000000000000000000000000000000000000000000815260040161118c906121bf565b60405180910390fd5b4282600401600c6101000a81548167ffffffffffffffff021916908367ffffffffffffffff16021790555060028260040160146101000a81548160ff021916908360038111156111e8576111e76119f3565b5b02179055505f8260040160049054906101000a900467ffffffffffffffff1683600401600c9054906101000a900467ffffffffffffffff1661122a91906121f6565b67ffffffffffffffff1690505f610e1084600301548361124a9190611ebf565b611254919061225e565b9050836002015481111561126a57836002015490505b5f6127106003548361127c9190611ebf565b611286919061225e565b90505f81836112959190611f68565b90505f8387600201546112a89190611f68565b90505f82111561131957855f015f9054906101000a900473ffffffffffffffffffffffffffffffffffffffff1673ffffffffffffffffffffffffffffffffffffffff166108fc8390811502906040515f60405180830381858888f19350505050158015611317573d5f5f3e3d5ffd5b505b5f8311156113875760045f9054906101000a900473ffffffffffffffffffffffffffffffffffffffff1673ffffffffffffffffffffffffffffffffffffffff166108fc8490811502906040515f60405180830381858888f19350505050158015611385573d5f5f3e3d5ffd5b505b5f8111156113f757866001015f9054906101000a900473ffffffffffffffffffffffffffffffffffffffff1673ffffffffffffffffffffffffffffffffffffffff166108fc8290811502906040515f60405180830381858888f193505050501580156113f5573d5f5f3e3d5ffd5b505b897f94e88a71cfce5dbfc2a5e052ef13a771191f728ca06d192bb04d793add35f00888600401600c9054906101000a900467ffffffffffffffff16868585604051611445949392919061228e565b60405180910390a25050505050505061145c611700565b505050565b5f60025f9054906101000a900473ffffffffffffffffffffffffffffffffffffffff16905090565b611491611709565b8060025f6101000a81548173ffffffffffffffffffffffffffffffffffffffff021916908373ffffffffffffffffffffffffffffffffffffffff1602179055508073ffffffffffffffffffffffffffffffffffffffff166114f0610dc2565b73ffffffffffffffffffffffffffffffffffffffff167f38d16b8cac22d99fc7c124b9cd0de2d3fa1faef420bfe791d8c362d765e2270060405160405180910390a350565b5f5f8311611578576040517f08c379a000000000000000000000000000000000000000000000000000000000815260040161156f9061231b565b60405180910390fd5b600560405180608001604052803373ffffffffffffffffffffffffffffffffffffffff16815260200185815260200160011515815260200184815250908060018154018082558091505060019003905f5260205f2090600402015f909190919091505f820151815f015f6101000a81548173ffffffffffffffffffffffffffffffffffffffff021916908373ffffffffffffffffffffffffffffffffffffffff160217905550602082015181600101556040820151816002015f6101000a81548160ff02191690831515021790555060608201518160030155505060016005805490506116659190611f68565b90503373ffffffffffffffffffffffffffffffffffffffff16817f24ce0891d81032f8b0286f56037be911ec845d0c87e43ea707d3406b9283088c856040516116ae9190611ae2565b60405180910390a392915050565b60025f54036116f7576040517f3ee5aeb500000000000000000000000000000000000000000000000000000000815260040160405180910390fd5b60025f81905550565b60015f81905550565b6117116117c0565b73ffffffffffffffffffffffffffffffffffffffff1661172f610dc2565b73ffffffffffffffffffffffffffffffffffffffff161461178e576117526117c0565b6040517f118cdaa70000000000000000000000000000000000000000000000000000000081526004016117859190611afb565b60405180910390fd5b565b60025f6101000a81549073ffffffffffffffffffffffffffffffffffffffff02191690556117bd816117c7565b50565b5f33905090565b5f60015f9054906101000a900473ffffffffffffffffffffffffffffffffffffffff1690508160015f6101000a81548173ffffffffffffffffffffffffffffffffffffffff021916908373ffffffffffffffffffffffffffffffffffffffff1602179055508173ffffffffffffffffffffffffffffffffffffffff168173ffffffffffffffffffffffffffffffffffffffff167f8be0079c531659141344cd1fd0a4f28419497f9722a3daafe3b4186f6b6457e060405160405180910390a35050565b5f5ffd5b5f5ffd5b5f819050919050565b6118a481611892565b81146118ae575f5ffd5b50565b5f813590506118bf8161189b565b92915050565b5f602082840312156118da576118d961188a565b5b5f6118e7848285016118b1565b91505092915050565b5f73ffffffffffffffffffffffffffffffffffffffff82169050919050565b5f611919826118f0565b9050919050565b6119298161190f565b82525050565b61193881611892565b82525050565b5f8115159050919050565b6119528161193e565b82525050565b5f819050919050565b61196a81611958565b82525050565b5f6080820190506119835f830187611920565b611990602083018661192f565b61199d6040830185611949565b6119aa6060830184611961565b95945050505050565b5f63ffffffff82169050919050565b6119cb816119b3565b82525050565b5f67ffffffffffffffff82169050919050565b6119ed816119d1565b82525050565b7f4e487b71000000000000000000000000000000000000000000000000000000005f52602160045260245ffd5b60048110611a3157611a306119f3565b5b50565b5f819050611a4182611a20565b919050565b5f611a5082611a34565b9050919050565b611a6081611a46565b82525050565b5f61010082019050611a7a5f83018b61192f565b611a87602083018a611920565b611a94604083018961192f565b611aa1606083018861192f565b611aae60808301876119c2565b611abb60a08301866119e4565b611ac860c08301856119e4565b611ad560e0830184611a57565b9998505050505050505050565b5f602082019050611af55f83018461192f565b92915050565b5f602082019050611b0e5f830184611920565b92915050565b611b1d816119b3565b8114611b27575f5ffd5b50565b5f81359050611b3881611b14565b92915050565b5f5f60408385031215611b5457611b5361188a565b5b5f611b61858286016118b1565b9250506020611b7285828601611b2a565b9150509250929050565b611b858161193e565b8114611b8f575f5ffd5b50565b5f81359050611ba081611b7c565b92915050565b611baf81611958565b8114611bb9575f5ffd5b50565b5f81359050611bca81611ba6565b92915050565b5f5f5f5f60808587031215611be857611be761188a565b5b5f611bf5878288016118b1565b9450506020611c06878288016118b1565b9350506040611c1787828801611b92565b9250506060611c2887828801611bbc565b91505092959194509250565b5f5ffd5b5f5ffd5b5f5ffd5b5f5f83601f840112611c5557611c54611c34565b5b8235905067ffffffffffffffff811115611c7257611c71611c38565b5b602083019150836001820283011115611c8e57611c8d611c3c565b5b9250929050565b5f5f5f60408486031215611cac57611cab61188a565b5b5f611cb9868287016118b1565b935050602084013567ffffffffffffffff811115611cda57611cd961188e565b5b611ce686828701611c40565b92509250509250925092565b611cfb8161190f565b8114611d05575f5ffd5b50565b5f81359050611d1681611cf2565b92915050565b5f60208284031215611d3157611d3061188a565b5b5f611d3e84828501611d08565b91505092915050565b5f5f60408385031215611d5d57611d5c61188a565b5b5f611d6a858286016118b1565b9250506020611d7b85828601611bbc565b9150509250929050565b7f4e487b71000000000000000000000000000000000000000000000000000000005f52603260045260245ffd5b5f82825260208201905092915050565b7f696e6163746976650000000000000000000000000000000000000000000000005f82015250565b5f611df6600883611db2565b9150611e0182611dc2565b602082019050919050565b5f6020820190508181035f830152611e2381611dea565b9050919050565b7f6d6178486f75727320696e76616c6964000000000000000000000000000000005f82015250565b5f611e5e601083611db2565b9150611e6982611e2a565b602082019050919050565b5f6020820190508181035f830152611e8b81611e52565b9050919050565b7f4e487b71000000000000000000000000000000000000000000000000000000005f52601160045260245ffd5b5f611ec982611892565b9150611ed483611892565b9250828202611ee281611892565b91508282048414831517611ef957611ef8611e92565b5b5092915050565b7f626164206465706f7369740000000000000000000000000000000000000000005f82015250565b5f611f34600b83611db2565b9150611f3f82611f00565b602082019050919050565b5f6020820190508181035f830152611f6181611f28565b9050919050565b5f611f7282611892565b9150611f7d83611892565b9250828203905081811115611f9557611f94611e92565b5b92915050565b5f604082019050611fae5f83018561192f565b611fbb60208301846119c2565b9392505050565b7f6e6f74206f776e657200000000000000000000000000000000000000000000005f82015250565b5f611ff6600983611db2565b915061200182611fc2565b602082019050919050565b5f6020820190508181035f83015261202381611fea565b9050919050565b5f60408201905061203d5f83018561192f565b61204a6020830184611949565b9392505050565b7f6e6f742072656e746572000000000000000000000000000000000000000000005f82015250565b5f612085600a83611db2565b915061209082612051565b602082019050919050565b5f6020820190508181035f8301526120b281612079565b9050919050565b7f62616420737461747573000000000000000000000000000000000000000000005f82015250565b5f6120ed600a83611db2565b91506120f8826120b9565b602082019050919050565b5f6020820190508181035f83015261211a816120e1565b9050919050565b5f81905092915050565b828183375f83830152505050565b5f6121448385612121565b935061215183858461212b565b82840190509392505050565b5f612169828486612139565b91508190509392505050565b7f62616420736563726574000000000000000000000000000000000000000000005f82015250565b5f6121a9600a83611db2565b91506121b482612175565b602082019050919050565b5f6020820190508181035f8301526121d68161219d565b9050919050565b5f6020820190506121f05f8301846119e4565b92915050565b5f612200826119d1565b915061220b836119d1565b9250828203905067ffffffffffffffff81111561222b5761222a611e92565b5b92915050565b7f4e487b71000000000000000000000000000000000000000000000000000000005f52601260045260245ffd5b5f61226882611892565b915061227383611892565b92508261228357612282612231565b5b828204905092915050565b5f6080820190506122a15f8301876119e4565b6122ae602083018661192f565b6122bb604083018561192f565b6122c8606083018461192f565b95945050505050565b7f726174653d3000000000000000000000000000000000000000000000000000005f82015250565b5f612305600683611db2565b9150612310826122d1565b602082019050919050565b5f6020820190508181035f830152612332816122f9565b905091905056fea264697066735822122074978308bb2aefff4addd4d1236bd6458630aaca923855d957832036a911e71264736f6c634300081e0033","linkReferences":{}},"methodIdentifiers":{"acceptOwnership()":"79ba5097","bookSpot(uint256,uint32)":"5b18a605","bookings(uint256)":"1dab301e","bookingsCount()":"b6406b18","cancelBeforeCheckIn(uint256)":"bfd420fa","checkIn(uint256,string)":"67deced2","checkOut(uint256,string)":"d6a34abf","createSpot(uint256,bytes32)":"f9cdde0c","feeBps()":"24a9d853","feeRecipient()":"46904840","owner()":"8da5cb5b","pendingOwner()":"e30c3978","renounceOwnership()":"715018a6","spots(uint256)":"145a8bdf","spotsCount()":"488944b8","transferOwnership(address)":"f2fde38b","updateSpot(uint256,uint256,bool,bytes32)":"675cdce9"},"id":20}